:100000000C9456000C9473000C9473000C947300C1
:100010000C9473000C9473000C9473000C94730094
:100020000C9473000C9473000C9473000C94730084
:100030000C9473000C9473000C9473000C94730074
:100040000C9473000C9473000C9473000C94730064
:100050000C9473000C9473000C9473000C94730054
:100060000C9473000C9473000C9473000C94730044
:100070000C9473000C9473000C9473000C94730034
:100080000C9473000C9473000C9473000C94750022
:100090000C9473000C9473000C9473000C94730014
:1000A0000C9473000C9473000C94730011241FBE05
:1000B000CFEFD5E0DEBFCDBF11E0A0E0B1E0ECEDC9
:1000C000F7E002C005900D92A231B107D9F711E017
:1000D000A2E1B1E001C01D92A531B107E1F70E9494
:1000E00095000C94EC030C9400001F920F920FB635
:1000F0000F9211248F939F938BE791EE909395002D
:100100008093940081E090911401911180E080939C
:100110001401882311F45E9A01C05E989F918F911B
:100120000F900FBE0F901F9018958CEA84B987E44A
:100130008AB910BA83E081BB81EF84BD84E085BDBC
:100140001092900085E08093910081E0809371008F
:1001500088E893E1909395008093940010921401A5
:10016000109213011092120117C0799B03C0789B63
:1001700003C002C0789B03C00E9455010DC00E94BD
:100180000E030E945001809112019091130101967B
:1001900090931301809312018091120190911301A9
:1001A000009719F375C08FEF91EEA4E08150904055
:1001B000A040E1F700C00000799B23C0789B04C0F9
:1001C00082E30E945A0164C00E9455018FEF91EEB4
:1001D000A4E081509040A040E1F700C000000E94E0
:1001E000C80284E60E9461018FEF93EDA0E3815085
:1001F0009040A040E1F700C0000084E60E94680142
:100200001EC08FEF91EEA4E081509040A040E1F736
:1002100000C00000789B1BC00E9455010E947A021A
:1002200084E60E9461018FEF93EDA0E3815090403E
:10023000A040E1F700C0000084E60E946F018FEF4C
:1002400099E6A8E181509040A040E1F71AC00E94D1
:1002500055010E94340284E60E9461018FEF93ED04
:10026000A0E381509040A040E1F700C0000084E688
:100270000E946F018FEF93EDA0E381509040A0406A
:10028000E1F700C00000809114018F5F809314019A
:100290008091120190911301009709F084CF7CCFD7
:1002A00080E885B981E08BB908958CE885B987E04D
:1002B0008BB908952B9A2A985A9A599887BD88BD68
:1002C00008952A9A2B98599A5A9887BD88BD0895FF
:1002D0002B9A2A98599A5A9887BD88BD08952A9AC8
:1002E0002B985A9A599887BD88BD089580E48AB999
:1002F0001092900085E08093910081E080937100DE
:100300008BE791EE909395008093940078940895F4
:10031000CF92DF92EF92FF920F931F93CF93DF93D1
:10032000C82FD0E0CC0FDD1FC050DF4F28813981AE
:1003300040E050E080E4C82E82E4D82E8FE0E82E22
:10034000F12CC701B6010E94AF03C90102E010E021
:10035000B8010E949C0370938700609386002881F7
:10036000398140E050E0C701B6010E94AF03C901E6
:10037000B8010E949C03CB0164E170E00E948803F5
:1003800070938900609388008FEF91EEA4E0815014
:100390009040A040E1F700C00000DF91CF911F9195
:1003A0000F91FF90EF90DF90CF9008959C0140E077
:1003B00050E060E472E48FE090E00E94AF03C90176
:1003C00062E070E00E949C03CB010895CF92DF921F
:1003D000EF92FF920F931F93CF93DF93C82FD0E03C
:1003E000CC0FDD1FC050DF4F2881398140E050E045
:1003F00060E4C62E62E4D62E6FE0E62EF12CC70133
:10040000B6010E94AF03C90102E010E0B8010E94EA
:100410009C0370938700609386002881398140E0B7
:1004200050E0C701B6010E94AF03C901B8010E94A4
:100430009C03CB0164E170E00E9488037093890003
:10044000609388008FEF90E7A2E081509040A04039
:10045000E1F700C00000DF91CF911F910F91FF9055
:10046000EF90DF90CF90089580E88093800082E144
:1004700080938100789481E064E670E00E94E60158
:1004800080E062E370E00E94E60183E064E670E0F1
:100490000E94E60180E062E370E00E94E60185E0F0
:1004A00064E670E00E94E60180E062E370E00E9492
:1004B000E60181E064E670E00E94E60180E062E32C
:1004C00070E00E94E60183E064E670E00E94E601CD
:1004D00080E062E370E00E94E60185E064E670E09F
:1004E0000E94E60180E062E370E00E94E60180E0A5
:1004F00090E00895CF93DF9380E88093800082E1BD
:1005000080938100789488E064E670E00E94E601C0
:1005100080E062E370E00E94E60185E064E670E05E
:100520000E94E60180E062E370E00E94E60184E060
:1005300064E670E00E94E601C8E8D1E080E090E067
:1005400062E370E0FE01099586E064E670E00E94D7
:10055000E60180E062E370E00E94E60185E064E687
:1005600070E00E94E60180E062E370E00E94E60134
:1005700084E064E670E00E94E60180E090E062E3DF
:1005800070E0FE01099580E090E0DF91CF91089541
:1005900080E88093800082E180938100789486E0F7
:1005A00064E670E00E94E60180E062E370E00E9491
:1005B000E60187E064E670E00E94E60180E062E325
:1005C00070E00E94E60186E064E670E00E94E601C9
:1005D00080E062E370E00E94E60186E064E670E09D
:1005E0000E94E60180E062E370E00E94E60187E09D
:1005F00064E670E00E94E60180E062E370E00E9441
:10060000E60186E064E670E00E94E60180E062E3D5
:1006100070E00E94E60180E090E00895CF93DF93C0
:1006200080E88093800082E1809381007894C8E81C
:10063000D1E086E090E064E670E0FE01099580E09C
:1006400090E062E370E0FE01099584E090E064E6EA
:1006500070E0FE01099580E090E062E370E0FE0149
:10066000099584E064E670E00E94E60180E062E3C0
:1006700070E00E94E60184E064E670E00E94E6011A
:1006800080E062E370E00E94E60184E064E670E0EE
:100690000E94E60180E090E062E370E0FE010995CF
:1006A00084E090E064E670E0FE01099580E062E39A
:1006B00070E00E94E60185E064E670E00E94E601D9
:1006C00080E062E370E00E94E60184E064E670E0AE
:1006D0000E94E60180E062E370E00E94E60181E0B2
:1006E00064E670E00E94E60180E062E370E00E9450
:1006F000E60184E064E670E00E94E60180E062E3E7
:1007000070E00E94E60180E090E0DF91CF910895D3
:10071000AA1BBB1B51E107C0AA1FBB1FA617B70727
:1007200010F0A61BB70B881F991F5A95A9F7809543
:100730009095BC01CD01089597FB092E07260AD09C
:1007400077FD04D0E5DF06D000201AF4709561959E
:100750007F4F0895F6F7909581959F4F089597FBE9
:10076000092E05260ED057FD04D014D00AD0001C47
:1007700038F450954095309521953F4F4F4F5F4F3E
:100780000895F6F790958095709561957F4F8F4FFE
:100790009F4F0895A1E21A2EAA1BBB1BFD010DC09D
:1007A000AA1FBB1FEE1FFF1FA217B307E407F50721
:1007B00020F0A21BB30BE40BF50B661F771F881FFD
:1007C000991F1A9469F760957095809590959B0193
:0C07D000AC01BD01CF010895F894FFCFEB
:1007DC0000000501250149015D018701B801ED010A
:0207EC000B02FE
:00000001FF
