:100000000C9456000C9473000C9473000C947300C1
:100010000C9473000C9473000C9473000C94730094
:100020000C9473000C9473000C9473000C94730084
:100030000C9473000C9473000C9473000C94730074
:100040000C9473000C9473000C9473000C94730064
:100050000C9473000C9473000C9473000C94730054
:100060000C9473000C9473000C9473000C94730044
:100070000C9473000C9473000C9473000C94730034
:100080000C9473000C9473000C9473000C94750022
:100090000C9473000C9473000C9473000C94730014
:1000A0000C9473000C9473000C94730011241FBE05
:1000B000CFEFD5E0DEBFCDBF11E0A0E0B1E0E8EECC
:1000C000F6E002C005900D92A231B107D9F711E018
:1000D000A2E1B1E001C01D92A531B107E1F70E9494
:1000E00095000C9472030C9400001F920F920FB6AF
:1000F0000F9211248F939F938BE791EE909395002D
:100100008093940081E090911401911180E080939C
:100110001401882311F45E9A01C05E989F918F911B
:100120000F900FBE0F901F9018950E94E70217C006
:10013000799B03C0789B03C002C0789B03C00E94D8
:1001400038010DC00E9482020E9433018091120189
:100150009091130101969093130180931201809165
:10016000120190911301009719F375C08FEF91EE72
:10017000A4E081509040A040E1F700C00000799BCE
:1001800023C0789B04C082E30E943D0164C00E94AA
:1001900038018FEF91EEA4E081509040A040E1F74C
:1001A00000C000000E94450284E60E9444018FEFD7
:1001B00093EDA0E381509040A040E1F700C0000023
:1001C00084E60E944B011EC08FEF91EEA4E08150A7
:1001D0009040A040E1F700C00000789B1BC00E9447
:1001E00038010E94080284E60E9444018FEF93EDDB
:1001F000A0E381509040A040E1F700C0000084E6F9
:100200000E9452018FEF99E6A8E181509040A040F2
:10021000E1F71AC00E9438010E94CB0184E60E94D7
:1002200044018FEF93EDA0E381509040A040E1F7AF
:1002300000C0000084E60E9452018FEF93EDA0E31E
:1002400081509040A040E1F700C00000809114016F
:100250008F5F809314018091120190911301009798
:1002600009F084CF7CCF80E885B981E08BB908950F
:100270008CE885B987E08BB908952B9A2A985A9A09
:10028000599887BD88BD08952A9A2B98599A5A98EB
:1002900087BD88BD08952B9A2A98599A5A9887BD88
:1002A00088BD08952A9A2B985A9A599887BD88BD77
:1002B00008959C0140E050E060E472E48FE090E03B
:1002C0000E943503C90162E070E00E942203CB0165
:1002D0000895AF92BF92CF92DF92EF92FF920F9369
:1002E0001F93CF93DF935B01C82FD0E0CC0FDD1FAE
:1002F000C050DF4F2881398140E050E080E4C82EB3
:1003000082E4D82E8FE0E82EF12CC701B6010E94BE
:100310003503C90102E010E0B8010E942203709386
:100320008700609386002881398140E050E0C70152
:10033000B6010E943503C901B8010E942203CB0116
:1003400064E170E00E940E0370938900609388005E
:10035000A114B10461F081E0A816B10489F48FEF13
:1003600090E7A2E081509040A040E1F707C08FEFF6
:1003700091EEA4E081509040A040E1F700C0000061
:10038000DF91CF911F910F91FF90EF90DF90CF9071
:10039000BF90AF90089581E060E070E00E94690135
:1003A00080E060E070E00E94690183E060E070E05E
:1003B0000E94690180E060E070E00E94690185E0D0
:1003C00060E070E00E94690180E060E070E00E94FF
:1003D000690181E060E070E00E94690180E060E016
:1003E00070E00E94690183E060E070E00E946901B2
:1003F00080E060E070E00E94690185E060E070E00C
:100400000E94690180E060E070E00E946901089547
:1004100088E060E070E00E94690180E060E070E0E8
:100420000E94690185E060E070E00E94690180E05F
:1004300060E070E00E94690184E060E070E00E948A
:10044000690180E061E070E00E94690186E060E09F
:1004500070E00E94690180E060E070E00E94690144
:1004600085E060E070E00E94690180E060E070E09B
:100470000E94690184E060E070E00E94690180E010
:1004800061E070E00E946901089586E060E070E03C
:100490000E94690180E060E070E00E94690187E0ED
:1004A00060E070E00E94690180E060E070E00E941E
:1004B000690186E060E070E00E94690180E060E030
:1004C00070E00E94690186E060E070E00E946901CE
:1004D00080E060E070E00E94690187E060E070E029
:1004E0000E94690180E060E070E00E94690186E09E
:1004F00060E070E00E94690180E060E070E00E94CE
:100500006901089586E061E070E00E94690180E081
:1005100061E070E00E94690184E061E070E00E94A7
:10052000690180E061E070E00E94690184E060E0C0
:1005300070E00E94690180E060E070E00E94690163
:1005400084E060E070E00E94690180E060E070E0BB
:100550000E94690184E060E070E00E94690180E02F
:1005600061E070E00E94690184E061E070E00E9457
:10057000690180E060E070E00E94690185E060E070
:1005800070E00E94690180E060E070E00E94690113
:1005900084E060E070E00E94690180E060E070E06B
:1005A0000E94690181E060E070E00E94690180E0E2
:1005B00060E070E00E94690184E060E070E00E9409
:1005C000690180E060E070E00E94690108958CEAB2
:1005D00084B987E48AB910BA83E081BB81EF84BD16
:1005E00084E085BD80E88093800082E18093810073
:1005F0001092900085E08093910081E080937100DB
:1006000088E893E1909395008093940010921401F0
:10061000109213011092120178940895AA1BBB1B2B
:1006200051E107C0AA1FBB1FA617B70710F0A61BF2
:10063000B70B881F991F5A95A9F780959095BC0113
:10064000CD01089597FB092E07260AD077FD04D027
:10065000E5DF06D000201AF4709561957F4F08956C
:10066000F6F7909581959F4F089597FB092E0526E3
:100670000ED057FD04D014D00AD0001C38F4509589
:100680004095309521953F4F4F4F5F4F0895F6F7B6
:1006900090958095709561957F4F8F4F9F4F0895EE
:1006A000A1E21A2EAA1BBB1BFD010DC0AA1FBB1F76
:1006B000EE1FFF1FA217B307E407F50720F0A21BE8
:1006C000B30BE40BF50B661F771F881F991F1A9455
:1006D00069F760957095809590959B01AC01BD017F
:0806E000CF010895F894FFCF4B
:1006E80000000501250149015D018701B801ED01FF
:0206F8000B02F3
:00000001FF
