:100000000C9456000C946B000C946B000C946B00D9
:100010000C946B000C946B000C946B000C946B00B4
:100020000C946B000C946B000C946B000C946B00A4
:100030000C946B000C946B000C946B000C946B0094
:100040000C946B000C946B000C946B000C946B0084
:100050000C946B000C946B000C946B000C946B0074
:100060000C946B000C946B000C946B000C946B0064
:100070000C946B000C946B000C946B000C946B0054
:100080000C946B000C946B000C946B000C946B0044
:100090000C946B000C946B000C946B000C946B0034
:1000A0000C946B000C946B000C946B0011241FBE1D
:1000B000CFEFDAE0DEBFCDBF11E0A0E0B1E0E8E7CE
:1000C000F3E002C005900D92A231B107D9F70E946A
:1000D0006D000C94BA010C9400001F93CF93DF9332
:1000E0008CE884B987E08AB910BA81EF84BD84E0D6
:1000F00085BD0E94DB00C0E0D0E013E002C0C1E09B
:10010000D0E01FB9789B1DC0799B1BC02097B9F325
:1001100084E60E94EC008FEF93EDA0E381509040C5
:10012000A040E1F700C0000084E60E94FA008FEFD3
:1001300093EDA0E381509040A040E1F700C00000A3
:10014000DECF789912C0799B10C084E60E94EC0043
:100150008FEF93EDA0E381509040A040E1F700C005
:10016000000084E60E94FA0013C0789B1BC07999B6
:1001700019C084E60E94EC008FEF93EDA0E381505C
:100180009040A040E1F700C0000084E60E94F30028
:100190008FEF99E6A8E181509040A040E1F700C0C0
:1001A0000000AFCF209719F40E94E000AACF82E3AD
:1001B0000E94E500A4CF80E885B981E08BB908955D
:1001C0008CE885B987E08BB908952A9A2B98599ABB
:1001D0005A9887BD88BD08952A982B9A59985A9A9B
:1001E00087BD88BD08952A982B9A599A5A9887BD39
:1001F00088BD08952A9A2B9859985A9A87BD88BD28
:1002000008959C0140E050E060E472E48FE090E0EB
:100210000E947D01C90162E070E00E946A01CB0189
:100220000895CF92DF92EF92FF920F931F93CF9397
:10023000DF93C82FD0E0CC0FDD1FC050DF4F2881E7
:10024000398140E050E080E4C82E82E4D82E8FE06F
:10025000E82EF12CC701B6010E947D01C90102E020
:1002600010E0B8010E946A017093870060938600D5
:100270002881398140E050E0C701B6010E947D012C
:10028000C901B8010E946A01CB0164E170E00E94DB
:1002900056017093890060938800DF91CF911F9180
:1002A0000F91FF90EF90DF90CF900895AA1BBB1B9A
:1002B00051E107C0AA1FBB1FA617B70710F0A61B66
:1002C000B70B881F991F5A95A9F780959095BC0187
:1002D000CD01089597FB092E07260AD077FD04D09B
:1002E000E5DF06D000201AF4709561957F4F0895E0
:1002F000F6F7909581959F4F089597FB092E052657
:100300000ED057FD04D014D00AD0001C38F45095FC
:100310004095309521953F4F4F4F5F4F0895F6F729
:1003200090958095709561957F4F8F4F9F4F089561
:10033000A1E21A2EAA1BBB1BFD010DC0AA1FBB1FE9
:10034000EE1FFF1FA217B307E407F50720F0A21B5B
:10035000B30BE40BF50B661F771F881F991F1A94C8
:1003600069F760957095809590959B01AC01BD01F2
:08037000CF010895F894FFCFBE
:1003780000000501250149015D018701B801ED0172
:020388000B0266
:00000001FF
