:100000000C9456000C946B000C946B000C946B00D9
:100010000C946B000C946B000C946B000C946B00B4
:100020000C946B000C946B000C946B000C946B00A4
:100030000C946B000C946B000C946B000C946B0094
:100040000C946B000C946B000C946B000C946B0084
:100050000C946B000C946B000C946B000C946B0074
:100060000C946B000C946B000C946B000C946B0064
:100070000C946B000C946B000C946B000C946B0054
:100080000C946B000C946B000C946B000C946B0044
:100090000C946B000C946B000C946B000C946B0034
:1000A0000C946B000C946B000C946B0011241FBE1D
:1000B000CFEFDAE0DEBFCDBF11E0A0E0B1E0EAE7CC
:1000C000F3E002C005900D92A231B107D9F70E946A
:1000D0006D000C94BB010C9400001F93CF93DF9331
:1000E0008CEA84B987E08AB910BA81EF84BD84E0D4
:1000F00085BD0E94DC007894C0E0D0E013E002C02F
:10010000C1E0D0E01FB9789B1DC0799B1BC0209730
:10011000B9F384E60E94ED008FEF93EDA0E38150E8
:100120009040A040E1F700C0000084E60E94FB0080
:100130008FEF93EDA0E381509040A040E1F700C025
:100140000000DECF789912C0799B10C084E60E942F
:10015000ED008FEF93EDA0E381509040A040E1F7D8
:1001600000C0000084E60E94FB0013C0789B1BC007
:10017000799919C084E60E94ED008FEF93EDA0E31A
:1001800081509040A040E1F700C0000084E60E944A
:10019000F4008FEF99E6A8E181509040A040E1F78C
:1001A00000C00000AFCF209719F40E94E100AACF51
:1001B00082E30E94E600A4CF80E885B981E08BB994
:1001C00008958CE885B987E08BB908952A9A2B9811
:1001D000599A5A9887BD88BD08952A982B9A59989C
:1001E0005A9A87BD88BD08952A982B9A599A5A9889
:1001F00087BD88BD08952A9A2B9859985A9A87BD29
:1002000088BD08959C0140E050E060E472E48FE016
:1002100090E00E947E01C90162E070E00E946B01E3
:10022000CB010895CF92DF92EF92FF920F931F932D
:10023000CF93DF93C82FD0E0CC0FDD1FC050DF4F2E
:100240002881398140E050E080E4C82E82E4D82E35
:100250008FE0E82EF12CC701B6010E947E01C90192
:1002600002E010E0B8010E946B0170938700609378
:1002700086002881398140E050E0C701B6010E9424
:100280007E01C901B8010E946B01CB0164E170E0FD
:100290000E9457017093890060938800DF91CF918D
:1002A0001F910F91FF90EF90DF90CF900895AA1BC0
:1002B000BB1B51E107C0AA1FBB1FA617B70710F051
:1002C000A61BB70B881F991F5A95A9F78095909583
:1002D000BC01CD01089597FB092E07260AD077FDB2
:1002E00004D0E5DF06D000201AF4709561957F4FA9
:1002F0000895F6F7909581959F4F089597FB092EE5
:1003000005260ED057FD04D014D00AD0001C38F4B6
:1003100050954095309521953F4F4F4F5F4F089531
:10032000F6F790958095709561957F4F8F4F9F4F11
:100330000895A1E21A2EAA1BBB1BFD010DC0AA1F26
:10034000BB1FEE1FFF1FA217B307E407F50720F03E
:10035000A21BB30BE40BF50B661F771F881F991FB9
:100360001A9469F760957095809590959B01AC0102
:0A037000BD01CF010895F894FFCFFE
:10037A0000000501250149015D018701B801ED0170
:02038A000B0264
:00000001FF
