:100000000C9456000C9468000C9468000C946800E2
:100010000C9468000C9468000C9468000C946800C0
:100020000C9468000C9468000C9468000C946800B0
:100030000C9468000C9468000C9468000C946800A0
:100040000C9468000C9468000C9468000C94680090
:100050000C9468000C9468000C9468000C94680080
:100060000C9468000C9468000C9468000C94680070
:100070000C9468000C9468000C9468000C94680060
:100080000C9468000C9468000C9468000C94680050
:100090000C9468000C9468000C9468000C94680040
:1000A0000C9468000C9468000C94680011241FBE26
:1000B000CFEFDAE0DEBFCDBF11E0A0E0B1E001C0DC
:1000C0001D92A330B107E1F70E946A000C943D0134
:1000D0000C9400008CEA84B987E48AB910BA83E0F2
:1000E00081BB81EF84BD84E085BD1092900085E0E6
:1000F0008093910081E08093710088E893E1909370
:1001000095008093940010920201109201011092C8
:10011000000115C0799B03C0789B03C002C0789B87
:1001200003C00E941C010BC00E94170180910001B6
:1001300090910101019690930101809300018091BB
:10014000000190910101009729F369C08FEF91EEB2
:10015000A4E081509040A040E1F700C00000799BEE
:100160001FC0789B04C082E30E94210158C08FEF1A
:1001700091EEA4E081509040A040E1F700C0000063
:1001800084E60E9428018FEF93EDA0E38150904018
:10019000A040E1F700C0000084E60E942F011AC0D1
:1001A0008FEF91EEA4E081509040A040E1F700C0B5
:1001B0000000789B17C084E60E9428018FEF93ED22
:1001C000A0E381509040A040E1F700C0000084E629
:1001D0000E9436018FEF99E6A8E181509040A0403F
:1001E000E1F716C084E60E9428018FEF93EDA0E3AB
:1001F00081509040A040E1F700C0000084E60E94DA
:1002000036018FEF93EDA0E381509040A040E1F7DD
:1002100000C00000809102018F5F809302018091F5
:10022000000190910101009709F090CF88CF80E8FC
:1002300085B981E08BB908958CE885B987E08BB9E1
:1002400008952B9A2A985A9A599887BD88BD08957F
:100250002A9A2B98599A5A9887BD88BD08952B9A47
:100260002A98599A5A9887BD88BD08952A9A2B983A
:0E0270005A9A599887BD88BD0895F894FFCF1B
:00000001FF
